:030000000209ED05
:0C09ED00787FE4F6D8FD75812002092017
:10099B003E5149453E00427F40004261514946214C
:1009AB0041454B311814127F1027454545393C4AB8
:1009BB004949300171090503364949493606494908
:0509CB00291E001800C8
:030003000209F9F6
:0809F900C2A8758CA4D28C3257
:03000B00020800E8
:0A080000C0E0C0F0C083C082C0D089
:10080A000509E509640C6003020915F509E508C341
:10081A0094055010E50F75F005A4249BF582E43485
:10082A00090208F5E508B405030208DAE508C394E5
:10083A000B5016E50E75F00A84E5F075F005A42450
:10084A0095F582E434090208F5E508C3940E5016BA
:10085A0030000BE5089009C293F4F5808003758097
:10086A00FF0508020915E508C39413500FE50D7535
:10087A00F005A4248DF582E43409806FE508B413E9
:10088A0002804DE508C39419500FE50C75F005A4D4
:10089A002487F582E434098052E508C3941C501574
:1008AA0030000BE5089009B493F4F5808003758055
:1008BA00FF05088056E508C39421500FE50B75F033
:1008CA0005A4247FF582E434098020E508B42107D1
:1008DA007580FF05088034E508C394275023E50A8C
:1008EA0075F005A42479F582E43409F583E58225B7
:1008FA0008F582E43583F583E493F4F580050880EE
:0B090A000AC28C7580FFD2A87508009F
:0B091500D0D0D082D083D0F0D0E032F0
:1009D000E4FFFEE4FDFC0DBD00010CBC04F8BDE22B
:0C09E000F50FBF00010EEF64A04E70E7A1
:0109EC0022E8
:10092000758902758CA4D2A8D288D2A9D2B9D2B8BE
:10093000D2A8D2AF7580FF75B0FFE4F50AF50BF5CC
:100940000CF50DF50EF50FC2001209D0B200050A24
:10095000E50AD394094005E4F50A050BE50BD394A9
:10096000054005E4F50B050CE50CD394094005E4BE
:10097000F50C050DE50DD394054005E4F50D050EC8
:10098000E50ED3940C4003E4F50EE50ED394094034
:0B09900005750F0180B3E4F50F80AE89
:00000001FF
